{
  "_format": "hh-sol-artifact-1",
  "contractName": "Xrays",
  "sourceName": "contracts/Xray.sol",
  "abi": [
    {
      "inputs": [
        {
          "internalType": "address",
          "name": "initialOwner",
          "type": "address"
        }
      ],
      "stateMutability": "nonpayable",
      "type": "constructor"
    },
    {
      "inputs": [
        {
          "internalType": "address",
          "name": "sender",
          "type": "address"
        },
        {
          "internalType": "uint256",
          "name": "tokenId",
          "type": "uint256"
        },
        {
          "internalType": "address",
          "name": "owner",
          "type": "address"
        }
      ],
      "name": "ERC721IncorrectOwner",
      "type": "error"
    },
    {
      "inputs": [
        {
          "internalType": "address",
          "name": "operator",
          "type": "address"
        },
        {
          "internalType": "uint256",
          "name": "tokenId",
          "type": "uint256"
        }
      ],
      "name": "ERC721InsufficientApproval",
      "type": "error"
    },
    {
      "inputs": [
        {
          "internalType": "address",
          "name": "approver",
          "type": "address"
        }
      ],
      "name": "ERC721InvalidApprover",
      "type": "error"
    },
    {
      "inputs": [
        {
          "internalType": "address",
          "name": "operator",
          "type": "address"
        }
      ],
      "name": "ERC721InvalidOperator",
      "type": "error"
    },
    {
      "inputs": [
        {
          "internalType": "address",
          "name": "owner",
          "type": "address"
        }
      ],
      "name": "ERC721InvalidOwner",
      "type": "error"
    },
    {
      "inputs": [
        {
          "internalType": "address",
          "name": "receiver",
          "type": "address"
        }
      ],
      "name": "ERC721InvalidReceiver",
      "type": "error"
    },
    {
      "inputs": [
        {
          "internalType": "address",
          "name": "sender",
          "type": "address"
        }
      ],
      "name": "ERC721InvalidSender",
      "type": "error"
    },
    {
      "inputs": [
        {
          "internalType": "uint256",
          "name": "tokenId",
          "type": "uint256"
        }
      ],
      "name": "ERC721NonexistentToken",
      "type": "error"
    },
    {
      "inputs": [
        {
          "internalType": "address",
          "name": "owner",
          "type": "address"
        }
      ],
      "name": "OwnableInvalidOwner",
      "type": "error"
    },
    {
      "inputs": [
        {
          "internalType": "address",
          "name": "account",
          "type": "address"
        }
      ],
      "name": "OwnableUnauthorizedAccount",
      "type": "error"
    },
    {
      "anonymous": false,
      "inputs": [
        {
          "indexed": true,
          "internalType": "address",
          "name": "owner",
          "type": "address"
        },
        {
          "indexed": true,
          "internalType": "address",
          "name": "approved",
          "type": "address"
        },
        {
          "indexed": true,
          "internalType": "uint256",
          "name": "tokenId",
          "type": "uint256"
        }
      ],
      "name": "Approval",
      "type": "event"
    },
    {
      "anonymous": false,
      "inputs": [
        {
          "indexed": true,
          "internalType": "address",
          "name": "owner",
          "type": "address"
        },
        {
          "indexed": true,
          "internalType": "address",
          "name": "operator",
          "type": "address"
        },
        {
          "indexed": false,
          "internalType": "bool",
          "name": "approved",
          "type": "bool"
        }
      ],
      "name": "ApprovalForAll",
      "type": "event"
    },
    {
      "anonymous": false,
      "inputs": [
        {
          "indexed": false,
          "internalType": "uint256",
          "name": "_fromTokenId",
          "type": "uint256"
        },
        {
          "indexed": false,
          "internalType": "uint256",
          "name": "_toTokenId",
          "type": "uint256"
        }
      ],
      "name": "BatchMetadataUpdate",
      "type": "event"
    },
    {
      "anonymous": false,
      "inputs": [
        {
          "indexed": false,
          "internalType": "uint256",
          "name": "_tokenId",
          "type": "uint256"
        }
      ],
      "name": "MetadataUpdate",
      "type": "event"
    },
    {
      "anonymous": false,
      "inputs": [
        {
          "indexed": true,
          "internalType": "address",
          "name": "previousOwner",
          "type": "address"
        },
        {
          "indexed": true,
          "internalType": "address",
          "name": "newOwner",
          "type": "address"
        }
      ],
      "name": "OwnershipTransferred",
      "type": "event"
    },
    {
      "anonymous": false,
      "inputs": [
        {
          "indexed": true,
          "internalType": "address",
          "name": "from",
          "type": "address"
        },
        {
          "indexed": true,
          "internalType": "address",
          "name": "to",
          "type": "address"
        },
        {
          "indexed": true,
          "internalType": "uint256",
          "name": "tokenId",
          "type": "uint256"
        }
      ],
      "name": "Transfer",
      "type": "event"
    },
    {
      "inputs": [
        {
          "internalType": "address",
          "name": "to",
          "type": "address"
        },
        {
          "internalType": "uint256",
          "name": "tokenId",
          "type": "uint256"
        }
      ],
      "name": "approve",
      "outputs": [],
      "stateMutability": "nonpayable",
      "type": "function"
    },
    {
      "inputs": [
        {
          "internalType": "address",
          "name": "owner",
          "type": "address"
        }
      ],
      "name": "balanceOf",
      "outputs": [
        {
          "internalType": "uint256",
          "name": "",
          "type": "uint256"
        }
      ],
      "stateMutability": "view",
      "type": "function"
    },
    {
      "inputs": [
        {
          "internalType": "uint256",
          "name": "tokenId",
          "type": "uint256"
        }
      ],
      "name": "getApproved",
      "outputs": [
        {
          "internalType": "address",
          "name": "",
          "type": "address"
        }
      ],
      "stateMutability": "view",
      "type": "function"
    },
    {
      "inputs": [
        {
          "internalType": "address",
          "name": "owner",
          "type": "address"
        },
        {
          "internalType": "address",
          "name": "operator",
          "type": "address"
        }
      ],
      "name": "isApprovedForAll",
      "outputs": [
        {
          "internalType": "bool",
          "name": "",
          "type": "bool"
        }
      ],
      "stateMutability": "view",
      "type": "function"
    },
    {
      "inputs": [],
      "name": "name",
      "outputs": [
        {
          "internalType": "string",
          "name": "",
          "type": "string"
        }
      ],
      "stateMutability": "view",
      "type": "function"
    },
    {
      "inputs": [],
      "name": "owner",
      "outputs": [
        {
          "internalType": "address",
          "name": "",
          "type": "address"
        }
      ],
      "stateMutability": "view",
      "type": "function"
    },
    {
      "inputs": [
        {
          "internalType": "uint256",
          "name": "tokenId",
          "type": "uint256"
        }
      ],
      "name": "ownerOf",
      "outputs": [
        {
          "internalType": "address",
          "name": "",
          "type": "address"
        }
      ],
      "stateMutability": "view",
      "type": "function"
    },
    {
      "inputs": [],
      "name": "renounceOwnership",
      "outputs": [],
      "stateMutability": "nonpayable",
      "type": "function"
    },
    {
      "inputs": [
        {
          "internalType": "address",
          "name": "to",
          "type": "address"
        },
        {
          "internalType": "string",
          "name": "uri",
          "type": "string"
        }
      ],
      "name": "safeMint",
      "outputs": [],
      "stateMutability": "nonpayable",
      "type": "function"
    },
    {
      "inputs": [
        {
          "internalType": "address",
          "name": "from",
          "type": "address"
        },
        {
          "internalType": "address",
          "name": "to",
          "type": "address"
        },
        {
          "internalType": "uint256",
          "name": "tokenId",
          "type": "uint256"
        }
      ],
      "name": "safeTransferFrom",
      "outputs": [],
      "stateMutability": "nonpayable",
      "type": "function"
    },
    {
      "inputs": [
        {
          "internalType": "address",
          "name": "from",
          "type": "address"
        },
        {
          "internalType": "address",
          "name": "to",
          "type": "address"
        },
        {
          "internalType": "uint256",
          "name": "tokenId",
          "type": "uint256"
        },
        {
          "internalType": "bytes",
          "name": "data",
          "type": "bytes"
        }
      ],
      "name": "safeTransferFrom",
      "outputs": [],
      "stateMutability": "nonpayable",
      "type": "function"
    },
    {
      "inputs": [
        {
          "internalType": "address",
          "name": "operator",
          "type": "address"
        },
        {
          "internalType": "bool",
          "name": "approved",
          "type": "bool"
        }
      ],
      "name": "setApprovalForAll",
      "outputs": [],
      "stateMutability": "nonpayable",
      "type": "function"
    },
    {
      "inputs": [
        {
          "internalType": "bytes4",
          "name": "interfaceId",
          "type": "bytes4"
        }
      ],
      "name": "supportsInterface",
      "outputs": [
        {
          "internalType": "bool",
          "name": "",
          "type": "bool"
        }
      ],
      "stateMutability": "view",
      "type": "function"
    },
    {
      "inputs": [],
      "name": "symbol",
      "outputs": [
        {
          "internalType": "string",
          "name": "",
          "type": "string"
        }
      ],
      "stateMutability": "view",
      "type": "function"
    },
    {
      "inputs": [
        {
          "internalType": "uint256",
          "name": "tokenId",
          "type": "uint256"
        }
      ],
      "name": "tokenURI",
      "outputs": [
        {
          "internalType": "string",
          "name": "",
          "type": "string"
        }
      ],
      "stateMutability": "view",
      "type": "function"
    },
    {
      "inputs": [
        {
          "internalType": "address",
          "name": "from",
          "type": "address"
        },
        {
          "internalType": "address",
          "name": "to",
          "type": "address"
        },
        {
          "internalType": "uint256",
          "name": "tokenId",
          "type": "uint256"
        }
      ],
      "name": "transferFrom",
      "outputs": [],
      "stateMutability": "nonpayable",
      "type": "function"
    },
    {
      "inputs": [
        {
          "internalType": "address",
          "name": "newOwner",
          "type": "address"
        }
      ],
      "name": "transferOwnership",
      "outputs": [],
      "stateMutability": "nonpayable",
      "type": "function"
    }
  ],
  "bytecode": "0x60806040523480156200001157600080fd5b5060405162002cf538038062002cf5833981810160405281019062000037919062000288565b806040518060400160405280600581526020017f58726179730000000000000000000000000000000000000000000000000000008152506040518060400160405280600381526020017f58525900000000000000000000000000000000000000000000000000000000008152508160009081620000b5919062000534565b508060019081620000c7919062000534565b505050600073ffffffffffffffffffffffffffffffffffffffff168173ffffffffffffffffffffffffffffffffffffffff16036200013f5760006040517f1e4fbdf70000000000000000000000000000000000000000000000000000000081526004016200013691906200062c565b60405180910390fd5b62000150816200015860201b60201c565b505062000649565b6000600760009054906101000a900473ffffffffffffffffffffffffffffffffffffffff16905081600760006101000a81548173ffffffffffffffffffffffffffffffffffffffff021916908373ffffffffffffffffffffffffffffffffffffffff1602179055508173ffffffffffffffffffffffffffffffffffffffff168173ffffffffffffffffffffffffffffffffffffffff167f8be0079c531659141344cd1fd0a4f28419497f9722a3daafe3b4186f6b6457e060405160405180910390a35050565b600080fd5b600073ffffffffffffffffffffffffffffffffffffffff82169050919050565b6000620002508262000223565b9050919050565b620002628162000243565b81146200026e57600080fd5b50565b600081519050620002828162000257565b92915050565b600060208284031215620002a157620002a06200021e565b5b6000620002b18482850162000271565b91505092915050565b600081519050919050565b7f4e487b7100000000000000000000000000000000000000000000000000000000600052604160045260246000fd5b7f4e487b7100000000000000000000000000000000000000000000000000000000600052602260045260246000fd5b600060028204905060018216806200033c57607f821691505b602082108103620003525762000351620002f4565b5b50919050565b60008190508160005260206000209050919050565b60006020601f8301049050919050565b600082821b905092915050565b600060088302620003bc7fffffffffffffffffffffffffffffffffffffffffffffffffffffffffffffffff826200037d565b620003c886836200037d565b95508019841693508086168417925050509392505050565b6000819050919050565b6000819050919050565b6000620004156200040f6200040984620003e0565b620003ea565b620003e0565b9050919050565b6000819050919050565b6200043183620003f4565b6200044962000440826200041c565b8484546200038a565b825550505050565b600090565b6200046062000451565b6200046d81848462000426565b505050565b5b8181101562000495576200048960008262000456565b60018101905062000473565b5050565b601f821115620004e457620004ae8162000358565b620004b9846200036d565b81016020851015620004c9578190505b620004e1620004d8856200036d565b83018262000472565b50505b505050565b600082821c905092915050565b60006200050960001984600802620004e9565b1980831691505092915050565b6000620005248383620004f6565b9150826002028217905092915050565b6200053f82620002ba565b67ffffffffffffffff8111156200055b576200055a620002c5565b5b62000567825462000323565b6200057482828562000499565b600060209050601f831160018114620005ac576000841562000597578287015190505b620005a3858262000516565b86555062000613565b601f198416620005bc8662000358565b60005b82811015620005e657848901518255600182019150602085019450602081019050620005bf565b8683101562000606578489015162000602601f891682620004f6565b8355505b6001600288020188555050505b505050505050565b620006268162000243565b82525050565b60006020820190506200064360008301846200061b565b92915050565b61269c80620006596000396000f3fe608060405234801561001057600080fd5b506004361061010b5760003560e01c8063715018a6116100a2578063b88d4fde11610071578063b88d4fde146102a4578063c87b56dd146102c0578063d204c45e146102f0578063e985e9c51461030c578063f2fde38b1461033c5761010b565b8063715018a6146102425780638da5cb5b1461024c57806395d89b411461026a578063a22cb465146102885761010b565b806323b872dd116100de57806323b872dd146101aa57806342842e0e146101c65780636352211e146101e257806370a08231146102125761010b565b806301ffc9a71461011057806306fdde0314610140578063081812fc1461015e578063095ea7b31461018e575b600080fd5b61012a60048036038101906101259190611af4565b610358565b6040516101379190611b3c565b60405180910390f35b61014861036a565b6040516101559190611be7565b60405180910390f35b61017860048036038101906101739190611c3f565b6103fc565b6040516101859190611cad565b60405180910390f35b6101a860048036038101906101a39190611cf4565b610418565b005b6101c460048036038101906101bf9190611d34565b61042e565b005b6101e060048036038101906101db9190611d34565b610530565b005b6101fc60048036038101906101f79190611c3f565b610550565b6040516102099190611cad565b60405180910390f35b61022c60048036038101906102279190611d87565b610562565b6040516102399190611dc3565b60405180910390f35b61024a61061c565b005b610254610630565b6040516102619190611cad565b60405180910390f35b61027261065a565b60405161027f9190611be7565b60405180910390f35b6102a2600480360381019061029d9190611e0a565b6106ec565b005b6102be60048036038101906102b99190611f7f565b610702565b005b6102da60048036038101906102d59190611c3f565b61071f565b6040516102e79190611be7565b60405180910390f35b61030a600480360381019061030591906120a3565b610731565b005b610326600480360381019061032191906120ff565b610765565b6040516103339190611b3c565b60405180910390f35b61035660048036038101906103519190611d87565b6107f9565b005b60006103638261087f565b9050919050565b6060600080546103799061216e565b80601f01602080910402602001604051908101604052809291908181526020018280546103a59061216e565b80156103f25780601f106103c7576101008083540402835291602001916103f2565b820191906000526020600020905b8154815290600101906020018083116103d557829003601f168201915b5050505050905090565b6000610407826108e0565b5061041182610968565b9050919050565b61042a82826104256109a5565b6109ad565b5050565b600073ffffffffffffffffffffffffffffffffffffffff168273ffffffffffffffffffffffffffffffffffffffff16036104a05760006040517f64a0ae920000000000000000000000000000000000000000000000000000000081526004016104979190611cad565b60405180910390fd5b60006104b483836104af6109a5565b6109bf565b90508373ffffffffffffffffffffffffffffffffffffffff168173ffffffffffffffffffffffffffffffffffffffff161461052a578382826040517f64283d7b0000000000000000000000000000000000000000000000000000000081526004016105219392919061219f565b60405180910390fd5b50505050565b61054b83838360405180602001604052806000815250610702565b505050565b600061055b826108e0565b9050919050565b60008073ffffffffffffffffffffffffffffffffffffffff168273ffffffffffffffffffffffffffffffffffffffff16036105d55760006040517f89c62b640000000000000000000000000000000000000000000000000000000081526004016105cc9190611cad565b60405180910390fd5b600360008373ffffffffffffffffffffffffffffffffffffffff1673ffffffffffffffffffffffffffffffffffffffff168152602001908152602001600020549050919050565b610624610bd9565b61062e6000610c60565b565b6000600760009054906101000a900473ffffffffffffffffffffffffffffffffffffffff16905090565b6060600180546106699061216e565b80601f01602080910402602001604051908101604052809291908181526020018280546106959061216e565b80156106e25780601f106106b7576101008083540402835291602001916106e2565b820191906000526020600020905b8154815290600101906020018083116106c557829003601f168201915b5050505050905090565b6106fe6106f76109a5565b8383610d26565b5050565b61070d84848461042e565b61071984848484610e95565b50505050565b606061072a8261104c565b9050919050565b60006008600081548092919061074690612205565b919050559050610756838261115f565b610760818361117d565b505050565b6000600560008473ffffffffffffffffffffffffffffffffffffffff1673ffffffffffffffffffffffffffffffffffffffff16815260200190815260200160002060008373ffffffffffffffffffffffffffffffffffffffff1673ffffffffffffffffffffffffffffffffffffffff16815260200190815260200160002060009054906101000a900460ff16905092915050565b610801610bd9565b600073ffffffffffffffffffffffffffffffffffffffff168173ffffffffffffffffffffffffffffffffffffffff16036108735760006040517f1e4fbdf700000000000000000000000000000000000000000000000000000000815260040161086a9190611cad565b60405180910390fd5b61087c81610c60565b50565b6000634906490660e01b7bffffffffffffffffffffffffffffffffffffffffffffffffffffffff1916827bffffffffffffffffffffffffffffffffffffffffffffffffffffffff191614806108d957506108d8826111d9565b5b9050919050565b6000806108ec836112bb565b9050600073ffffffffffffffffffffffffffffffffffffffff168173ffffffffffffffffffffffffffffffffffffffff160361095f57826040517f7e2732890000000000000000000000000000000000000000000000000000000081526004016109569190611dc3565b60405180910390fd5b80915050919050565b60006004600083815260200190815260200160002060009054906101000a900473ffffffffffffffffffffffffffffffffffffffff169050919050565b600033905090565b6109ba83838360016112f8565b505050565b6000806109cb846112bb565b9050600073ffffffffffffffffffffffffffffffffffffffff168373ffffffffffffffffffffffffffffffffffffffff1614610a0d57610a0c8184866114bd565b5b600073ffffffffffffffffffffffffffffffffffffffff168173ffffffffffffffffffffffffffffffffffffffff1614610a9e57610a4f6000856000806112f8565b6001600360008373ffffffffffffffffffffffffffffffffffffffff1673ffffffffffffffffffffffffffffffffffffffff168152602001908152602001600020600082825403925050819055505b600073ffffffffffffffffffffffffffffffffffffffff168573ffffffffffffffffffffffffffffffffffffffff1614610b21576001600360008773ffffffffffffffffffffffffffffffffffffffff1673ffffffffffffffffffffffffffffffffffffffff168152602001908152602001600020600082825401925050819055505b846002600086815260200190815260200160002060006101000a81548173ffffffffffffffffffffffffffffffffffffffff021916908373ffffffffffffffffffffffffffffffffffffffff160217905550838573ffffffffffffffffffffffffffffffffffffffff168273ffffffffffffffffffffffffffffffffffffffff167fddf252ad1be2c89b69c2b068fc378daa952ba7f163c4a11628f55a4df523b3ef60405160405180910390a4809150509392505050565b610be16109a5565b73ffffffffffffffffffffffffffffffffffffffff16610bff610630565b73ffffffffffffffffffffffffffffffffffffffff1614610c5e57610c226109a5565b6040517f118cdaa7000000000000000000000000000000000000000000000000000000008152600401610c559190611cad565b60405180910390fd5b565b6000600760009054906101000a900473ffffffffffffffffffffffffffffffffffffffff16905081600760006101000a81548173ffffffffffffffffffffffffffffffffffffffff021916908373ffffffffffffffffffffffffffffffffffffffff1602179055508173ffffffffffffffffffffffffffffffffffffffff168173ffffffffffffffffffffffffffffffffffffffff167f8be0079c531659141344cd1fd0a4f28419497f9722a3daafe3b4186f6b6457e060405160405180910390a35050565b600073ffffffffffffffffffffffffffffffffffffffff168273ffffffffffffffffffffffffffffffffffffffff1603610d9757816040517f5b08ba18000000000000000000000000000000000000000000000000000000008152600401610d8e9190611cad565b60405180910390fd5b80600560008573ffffffffffffffffffffffffffffffffffffffff1673ffffffffffffffffffffffffffffffffffffffff16815260200190815260200160002060008473ffffffffffffffffffffffffffffffffffffffff1673ffffffffffffffffffffffffffffffffffffffff16815260200190815260200160002060006101000a81548160ff0219169083151502179055508173ffffffffffffffffffffffffffffffffffffffff168373ffffffffffffffffffffffffffffffffffffffff167f17307eab39ab6107e8899845ad3d59bd9653f200f220920489ca2b5937696c3183604051610e889190611b3c565b60405180910390a3505050565b60008373ffffffffffffffffffffffffffffffffffffffff163b1115611046578273ffffffffffffffffffffffffffffffffffffffff1663150b7a02610ed96109a5565b8685856040518563ffffffff1660e01b8152600401610efb94939291906122a2565b6020604051808303816000875af1925050508015610f3757506040513d601f19601f82011682018060405250810190610f349190612303565b60015b610fbb573d8060008114610f67576040519150601f19603f3d011682016040523d82523d6000602084013e610f6c565b606091505b506000815103610fb357836040517f64a0ae92000000000000000000000000000000000000000000000000000000008152600401610faa9190611cad565b60405180910390fd5b805181602001fd5b63150b7a0260e01b7bffffffffffffffffffffffffffffffffffffffffffffffffffffffff1916817bffffffffffffffffffffffffffffffffffffffffffffffffffffffff19161461104457836040517f64a0ae9200000000000000000000000000000000000000000000000000000000815260040161103b9190611cad565b60405180910390fd5b505b50505050565b6060611057826108e0565b5060006006600084815260200190815260200160002080546110789061216e565b80601f01602080910402602001604051908101604052809291908181526020018280546110a49061216e565b80156110f15780601f106110c6576101008083540402835291602001916110f1565b820191906000526020600020905b8154815290600101906020018083116110d457829003601f168201915b505050505090506000611102611581565b9050600081510361111757819250505061115a565b60008251111561114c57808260405160200161113492919061236c565b6040516020818303038152906040529250505061115a565b611155846115be565b925050505b919050565b611179828260405180602001604052806000815250611627565b5050565b8060066000848152602001908152602001600020908161119d919061253c565b507ff8e1a15aba9398e019f0b49df1a4fde98ee17ae345cb5f6b5e2c27f5033e8ce7826040516111cd9190611dc3565b60405180910390a15050565b60007f80ac58cd000000000000000000000000000000000000000000000000000000007bffffffffffffffffffffffffffffffffffffffffffffffffffffffff1916827bffffffffffffffffffffffffffffffffffffffffffffffffffffffff191614806112a457507f5b5e139f000000000000000000000000000000000000000000000000000000007bffffffffffffffffffffffffffffffffffffffffffffffffffffffff1916827bffffffffffffffffffffffffffffffffffffffffffffffffffffffff1916145b806112b457506112b382611643565b5b9050919050565b60006002600083815260200190815260200160002060009054906101000a900473ffffffffffffffffffffffffffffffffffffffff169050919050565b80806113315750600073ffffffffffffffffffffffffffffffffffffffff168273ffffffffffffffffffffffffffffffffffffffff1614155b15611465576000611341846108e0565b9050600073ffffffffffffffffffffffffffffffffffffffff168373ffffffffffffffffffffffffffffffffffffffff16141580156113ac57508273ffffffffffffffffffffffffffffffffffffffff168173ffffffffffffffffffffffffffffffffffffffff1614155b80156113bf57506113bd8184610765565b155b1561140157826040517fa9fbf51f0000000000000000000000000000000000000000000000000000000081526004016113f89190611cad565b60405180910390fd5b811561146357838573ffffffffffffffffffffffffffffffffffffffff168273ffffffffffffffffffffffffffffffffffffffff167f8c5be1e5ebec7d5bd14f71427d1e84f3dd0314c0f7b2291e5b200ac8c7c3b92560405160405180910390a45b505b836004600085815260200190815260200160002060006101000a81548173ffffffffffffffffffffffffffffffffffffffff021916908373ffffffffffffffffffffffffffffffffffffffff16021790555050505050565b6114c88383836116ad565b61157c57600073ffffffffffffffffffffffffffffffffffffffff168373ffffffffffffffffffffffffffffffffffffffff160361153d57806040517f7e2732890000000000000000000000000000000000000000000000000000000081526004016115349190611dc3565b60405180910390fd5b81816040517f177e802f00000000000000000000000000000000000000000000000000000000815260040161157392919061260e565b60405180910390fd5b505050565b60606040518060400160405280600781526020017f697066733a2f2f00000000000000000000000000000000000000000000000000815250905090565b60606115c9826108e0565b5060006115d4611581565b905060008151116115f4576040518060200160405280600081525061161f565b806115fe8461176e565b60405160200161160f92919061236c565b6040516020818303038152906040525b915050919050565b611631838361183c565b61163e6000848484610e95565b505050565b60007f01ffc9a7000000000000000000000000000000000000000000000000000000007bffffffffffffffffffffffffffffffffffffffffffffffffffffffff1916827bffffffffffffffffffffffffffffffffffffffffffffffffffffffff1916149050919050565b60008073ffffffffffffffffffffffffffffffffffffffff168373ffffffffffffffffffffffffffffffffffffffff161415801561176557508273ffffffffffffffffffffffffffffffffffffffff168473ffffffffffffffffffffffffffffffffffffffff16148061172657506117258484610765565b5b8061176457508273ffffffffffffffffffffffffffffffffffffffff1661174c83610968565b73ffffffffffffffffffffffffffffffffffffffff16145b5b90509392505050565b60606000600161177d84611935565b01905060008167ffffffffffffffff81111561179c5761179b611e54565b5b6040519080825280601f01601f1916602001820160405280156117ce5781602001600182028036833780820191505090505b509050600082602001820190505b600115611831578080600190039150507f3031323334353637383961626364656600000000000000000000000000000000600a86061a8153600a858161182557611824612637565b5b049450600085036117dc575b819350505050919050565b600073ffffffffffffffffffffffffffffffffffffffff168273ffffffffffffffffffffffffffffffffffffffff16036118ae5760006040517f64a0ae920000000000000000000000000000000000000000000000000000000081526004016118a59190611cad565b60405180910390fd5b60006118bc838360006109bf565b9050600073ffffffffffffffffffffffffffffffffffffffff168173ffffffffffffffffffffffffffffffffffffffff16146119305760006040517f73c6ac6e0000000000000000000000000000000000000000000000000000000081526004016119279190611cad565b60405180910390fd5b505050565b600080600090507a184f03e93ff9f4daa797ed6e38ed64bf6a1f0100000000000000008310611993577a184f03e93ff9f4daa797ed6e38ed64bf6a1f010000000000000000838161198957611988612637565b5b0492506040810190505b6d04ee2d6d415b85acef810000000083106119d0576d04ee2d6d415b85acef810000000083816119c6576119c5612637565b5b0492506020810190505b662386f26fc1000083106119ff57662386f26fc1000083816119f5576119f4612637565b5b0492506010810190505b6305f5e1008310611a28576305f5e1008381611a1e57611a1d612637565b5b0492506008810190505b6127108310611a4d576127108381611a4357611a42612637565b5b0492506004810190505b60648310611a705760648381611a6657611a65612637565b5b0492506002810190505b600a8310611a7f576001810190505b80915050919050565b6000604051905090565b600080fd5b600080fd5b60007fffffffff0000000000000000000000000000000000000000000000000000000082169050919050565b611ad181611a9c565b8114611adc57600080fd5b50565b600081359050611aee81611ac8565b92915050565b600060208284031215611b0a57611b09611a92565b5b6000611b1884828501611adf565b91505092915050565b60008115159050919050565b611b3681611b21565b82525050565b6000602082019050611b516000830184611b2d565b92915050565b600081519050919050565b600082825260208201905092915050565b60005b83811015611b91578082015181840152602081019050611b76565b60008484015250505050565b6000601f19601f8301169050919050565b6000611bb982611b57565b611bc38185611b62565b9350611bd3818560208601611b73565b611bdc81611b9d565b840191505092915050565b60006020820190508181036000830152611c018184611bae565b905092915050565b6000819050919050565b611c1c81611c09565b8114611c2757600080fd5b50565b600081359050611c3981611c13565b92915050565b600060208284031215611c5557611c54611a92565b5b6000611c6384828501611c2a565b91505092915050565b600073ffffffffffffffffffffffffffffffffffffffff82169050919050565b6000611c9782611c6c565b9050919050565b611ca781611c8c565b82525050565b6000602082019050611cc26000830184611c9e565b92915050565b611cd181611c8c565b8114611cdc57600080fd5b50565b600081359050611cee81611cc8565b92915050565b60008060408385031215611d0b57611d0a611a92565b5b6000611d1985828601611cdf565b9250506020611d2a85828601611c2a565b9150509250929050565b600080600060608486031215611d4d57611d4c611a92565b5b6000611d5b86828701611cdf565b9350506020611d6c86828701611cdf565b9250506040611d7d86828701611c2a565b9150509250925092565b600060208284031215611d9d57611d9c611a92565b5b6000611dab84828501611cdf565b91505092915050565b611dbd81611c09565b82525050565b6000602082019050611dd86000830184611db4565b92915050565b611de781611b21565b8114611df257600080fd5b50565b600081359050611e0481611dde565b92915050565b60008060408385031215611e2157611e20611a92565b5b6000611e2f85828601611cdf565b9250506020611e4085828601611df5565b9150509250929050565b600080fd5b600080fd5b7f4e487b7100000000000000000000000000000000000000000000000000000000600052604160045260246000fd5b611e8c82611b9d565b810181811067ffffffffffffffff82111715611eab57611eaa611e54565b5b80604052505050565b6000611ebe611a88565b9050611eca8282611e83565b919050565b600067ffffffffffffffff821115611eea57611ee9611e54565b5b611ef382611b9d565b9050602081019050919050565b82818337600083830152505050565b6000611f22611f1d84611ecf565b611eb4565b905082815260208101848484011115611f3e57611f3d611e4f565b5b611f49848285611f00565b509392505050565b600082601f830112611f6657611f65611e4a565b5b8135611f76848260208601611f0f565b91505092915050565b60008060008060808587031215611f9957611f98611a92565b5b6000611fa787828801611cdf565b9450506020611fb887828801611cdf565b9350506040611fc987828801611c2a565b925050606085013567ffffffffffffffff811115611fea57611fe9611a97565b5b611ff687828801611f51565b91505092959194509250565b600067ffffffffffffffff82111561201d5761201c611e54565b5b61202682611b9d565b9050602081019050919050565b600061204661204184612002565b611eb4565b90508281526020810184848401111561206257612061611e4f565b5b61206d848285611f00565b509392505050565b600082601f83011261208a57612089611e4a565b5b813561209a848260208601612033565b91505092915050565b600080604083850312156120ba576120b9611a92565b5b60006120c885828601611cdf565b925050602083013567ffffffffffffffff8111156120e9576120e8611a97565b5b6120f585828601612075565b9150509250929050565b6000806040838503121561211657612115611a92565b5b600061212485828601611cdf565b925050602061213585828601611cdf565b9150509250929050565b7f4e487b7100000000000000000000000000000000000000000000000000000000600052602260045260246000fd5b6000600282049050600182168061218657607f821691505b6020821081036121995761219861213f565b5b50919050565b60006060820190506121b46000830186611c9e565b6121c16020830185611db4565b6121ce6040830184611c9e565b949350505050565b7f4e487b7100000000000000000000000000000000000000000000000000000000600052601160045260246000fd5b600061221082611c09565b91507fffffffffffffffffffffffffffffffffffffffffffffffffffffffffffffffff8203612242576122416121d6565b5b600182019050919050565b600081519050919050565b600082825260208201905092915050565b60006122748261224d565b61227e8185612258565b935061228e818560208601611b73565b61229781611b9d565b840191505092915050565b60006080820190506122b76000830187611c9e565b6122c46020830186611c9e565b6122d16040830185611db4565b81810360608301526122e38184612269565b905095945050505050565b6000815190506122fd81611ac8565b92915050565b60006020828403121561231957612318611a92565b5b6000612327848285016122ee565b91505092915050565b600081905092915050565b600061234682611b57565b6123508185612330565b9350612360818560208601611b73565b80840191505092915050565b6000612378828561233b565b9150612384828461233b565b91508190509392505050565b60008190508160005260206000209050919050565b60006020601f8301049050919050565b600082821b905092915050565b6000600883026123f27fffffffffffffffffffffffffffffffffffffffffffffffffffffffffffffffff826123b5565b6123fc86836123b5565b95508019841693508086168417925050509392505050565b6000819050919050565b600061243961243461242f84611c09565b612414565b611c09565b9050919050565b6000819050919050565b6124538361241e565b61246761245f82612440565b8484546123c2565b825550505050565b600090565b61247c61246f565b61248781848461244a565b505050565b5b818110156124ab576124a0600082612474565b60018101905061248d565b5050565b601f8211156124f0576124c181612390565b6124ca846123a5565b810160208510156124d9578190505b6124ed6124e5856123a5565b83018261248c565b50505b505050565b600082821c905092915050565b6000612513600019846008026124f5565b1980831691505092915050565b600061252c8383612502565b9150826002028217905092915050565b61254582611b57565b67ffffffffffffffff81111561255e5761255d611e54565b5b612568825461216e565b6125738282856124af565b600060209050601f8311600181146125a65760008415612594578287015190505b61259e8582612520565b865550612606565b601f1984166125b486612390565b60005b828110156125dc578489015182556001820191506020850194506020810190506125b7565b868310156125f957848901516125f5601f891682612502565b8355505b6001600288020188555050505b505050505050565b60006040820190506126236000830185611c9e565b6126306020830184611db4565b9392505050565b7f4e487b7100000000000000000000000000000000000000000000000000000000600052601260045260246000fdfea264697066735822122086dac10881f8fc02bd467dec72692ade2b7cec4b7e6721f06c8560f9e1f3e72064736f6c63430008180033",
  "linkReferences": {},
  "deployedLinkReferences": {}
}