{
  "_format": "hh-sol-artifact-1",
  "contractName": "Xrays",
  "sourceName": "contracts/Xray.sol",
  "abi": [
    {
      "inputs": [
        {
          "internalType": "address",
          "name": "initialOwner",
          "type": "address"
        }
      ],
      "stateMutability": "nonpayable",
      "type": "constructor"
    },
    {
      "inputs": [
        {
          "internalType": "address",
          "name": "sender",
          "type": "address"
        },
        {
          "internalType": "uint256",
          "name": "tokenId",
          "type": "uint256"
        },
        {
          "internalType": "address",
          "name": "owner",
          "type": "address"
        }
      ],
      "name": "ERC721IncorrectOwner",
      "type": "error"
    },
    {
      "inputs": [
        {
          "internalType": "address",
          "name": "operator",
          "type": "address"
        },
        {
          "internalType": "uint256",
          "name": "tokenId",
          "type": "uint256"
        }
      ],
      "name": "ERC721InsufficientApproval",
      "type": "error"
    },
    {
      "inputs": [
        {
          "internalType": "address",
          "name": "approver",
          "type": "address"
        }
      ],
      "name": "ERC721InvalidApprover",
      "type": "error"
    },
    {
      "inputs": [
        {
          "internalType": "address",
          "name": "operator",
          "type": "address"
        }
      ],
      "name": "ERC721InvalidOperator",
      "type": "error"
    },
    {
      "inputs": [
        {
          "internalType": "address",
          "name": "owner",
          "type": "address"
        }
      ],
      "name": "ERC721InvalidOwner",
      "type": "error"
    },
    {
      "inputs": [
        {
          "internalType": "address",
          "name": "receiver",
          "type": "address"
        }
      ],
      "name": "ERC721InvalidReceiver",
      "type": "error"
    },
    {
      "inputs": [
        {
          "internalType": "address",
          "name": "sender",
          "type": "address"
        }
      ],
      "name": "ERC721InvalidSender",
      "type": "error"
    },
    {
      "inputs": [
        {
          "internalType": "uint256",
          "name": "tokenId",
          "type": "uint256"
        }
      ],
      "name": "ERC721NonexistentToken",
      "type": "error"
    },
    {
      "inputs": [
        {
          "internalType": "address",
          "name": "owner",
          "type": "address"
        }
      ],
      "name": "OwnableInvalidOwner",
      "type": "error"
    },
    {
      "inputs": [
        {
          "internalType": "address",
          "name": "account",
          "type": "address"
        }
      ],
      "name": "OwnableUnauthorizedAccount",
      "type": "error"
    },
    {
      "anonymous": false,
      "inputs": [
        {
          "indexed": true,
          "internalType": "address",
          "name": "owner",
          "type": "address"
        },
        {
          "indexed": true,
          "internalType": "address",
          "name": "approved",
          "type": "address"
        },
        {
          "indexed": true,
          "internalType": "uint256",
          "name": "tokenId",
          "type": "uint256"
        }
      ],
      "name": "Approval",
      "type": "event"
    },
    {
      "anonymous": false,
      "inputs": [
        {
          "indexed": true,
          "internalType": "address",
          "name": "owner",
          "type": "address"
        },
        {
          "indexed": true,
          "internalType": "address",
          "name": "operator",
          "type": "address"
        },
        {
          "indexed": false,
          "internalType": "bool",
          "name": "approved",
          "type": "bool"
        }
      ],
      "name": "ApprovalForAll",
      "type": "event"
    },
    {
      "anonymous": false,
      "inputs": [
        {
          "indexed": false,
          "internalType": "uint256",
          "name": "_fromTokenId",
          "type": "uint256"
        },
        {
          "indexed": false,
          "internalType": "uint256",
          "name": "_toTokenId",
          "type": "uint256"
        }
      ],
      "name": "BatchMetadataUpdate",
      "type": "event"
    },
    {
      "anonymous": false,
      "inputs": [
        {
          "indexed": false,
          "internalType": "uint256",
          "name": "_tokenId",
          "type": "uint256"
        }
      ],
      "name": "MetadataUpdate",
      "type": "event"
    },
    {
      "anonymous": false,
      "inputs": [
        {
          "indexed": true,
          "internalType": "address",
          "name": "previousOwner",
          "type": "address"
        },
        {
          "indexed": true,
          "internalType": "address",
          "name": "newOwner",
          "type": "address"
        }
      ],
      "name": "OwnershipTransferred",
      "type": "event"
    },
    {
      "anonymous": false,
      "inputs": [
        {
          "indexed": true,
          "internalType": "address",
          "name": "from",
          "type": "address"
        },
        {
          "indexed": true,
          "internalType": "address",
          "name": "to",
          "type": "address"
        },
        {
          "indexed": true,
          "internalType": "uint256",
          "name": "tokenId",
          "type": "uint256"
        }
      ],
      "name": "Transfer",
      "type": "event"
    },
    {
      "inputs": [
        {
          "internalType": "address",
          "name": "to",
          "type": "address"
        },
        {
          "internalType": "uint256",
          "name": "tokenId",
          "type": "uint256"
        }
      ],
      "name": "approve",
      "outputs": [],
      "stateMutability": "nonpayable",
      "type": "function"
    },
    {
      "inputs": [
        {
          "internalType": "address",
          "name": "owner",
          "type": "address"
        }
      ],
      "name": "balanceOf",
      "outputs": [
        {
          "internalType": "uint256",
          "name": "",
          "type": "uint256"
        }
      ],
      "stateMutability": "view",
      "type": "function"
    },
    {
      "inputs": [
        {
          "internalType": "uint256",
          "name": "tokenId",
          "type": "uint256"
        }
      ],
      "name": "getApproved",
      "outputs": [
        {
          "internalType": "address",
          "name": "",
          "type": "address"
        }
      ],
      "stateMutability": "view",
      "type": "function"
    },
    {
      "inputs": [],
      "name": "getCid",
      "outputs": [
        {
          "internalType": "string",
          "name": "",
          "type": "string"
        }
      ],
      "stateMutability": "view",
      "type": "function"
    },
    {
      "inputs": [
        {
          "internalType": "address",
          "name": "owner",
          "type": "address"
        },
        {
          "internalType": "address",
          "name": "operator",
          "type": "address"
        }
      ],
      "name": "isApprovedForAll",
      "outputs": [
        {
          "internalType": "bool",
          "name": "",
          "type": "bool"
        }
      ],
      "stateMutability": "view",
      "type": "function"
    },
    {
      "inputs": [],
      "name": "name",
      "outputs": [
        {
          "internalType": "string",
          "name": "",
          "type": "string"
        }
      ],
      "stateMutability": "view",
      "type": "function"
    },
    {
      "inputs": [],
      "name": "owner",
      "outputs": [
        {
          "internalType": "address",
          "name": "",
          "type": "address"
        }
      ],
      "stateMutability": "view",
      "type": "function"
    },
    {
      "inputs": [
        {
          "internalType": "uint256",
          "name": "tokenId",
          "type": "uint256"
        }
      ],
      "name": "ownerOf",
      "outputs": [
        {
          "internalType": "address",
          "name": "",
          "type": "address"
        }
      ],
      "stateMutability": "view",
      "type": "function"
    },
    {
      "inputs": [],
      "name": "renounceOwnership",
      "outputs": [],
      "stateMutability": "nonpayable",
      "type": "function"
    },
    {
      "inputs": [
        {
          "internalType": "address",
          "name": "to",
          "type": "address"
        },
        {
          "internalType": "string",
          "name": "cid",
          "type": "string"
        }
      ],
      "name": "safeMint",
      "outputs": [],
      "stateMutability": "nonpayable",
      "type": "function"
    },
    {
      "inputs": [
        {
          "internalType": "address",
          "name": "from",
          "type": "address"
        },
        {
          "internalType": "address",
          "name": "to",
          "type": "address"
        },
        {
          "internalType": "uint256",
          "name": "tokenId",
          "type": "uint256"
        }
      ],
      "name": "safeTransferFrom",
      "outputs": [],
      "stateMutability": "nonpayable",
      "type": "function"
    },
    {
      "inputs": [
        {
          "internalType": "address",
          "name": "from",
          "type": "address"
        },
        {
          "internalType": "address",
          "name": "to",
          "type": "address"
        },
        {
          "internalType": "uint256",
          "name": "tokenId",
          "type": "uint256"
        },
        {
          "internalType": "bytes",
          "name": "data",
          "type": "bytes"
        }
      ],
      "name": "safeTransferFrom",
      "outputs": [],
      "stateMutability": "nonpayable",
      "type": "function"
    },
    {
      "inputs": [
        {
          "internalType": "address",
          "name": "operator",
          "type": "address"
        },
        {
          "internalType": "bool",
          "name": "approved",
          "type": "bool"
        }
      ],
      "name": "setApprovalForAll",
      "outputs": [],
      "stateMutability": "nonpayable",
      "type": "function"
    },
    {
      "inputs": [
        {
          "internalType": "bytes4",
          "name": "interfaceId",
          "type": "bytes4"
        }
      ],
      "name": "supportsInterface",
      "outputs": [
        {
          "internalType": "bool",
          "name": "",
          "type": "bool"
        }
      ],
      "stateMutability": "view",
      "type": "function"
    },
    {
      "inputs": [],
      "name": "symbol",
      "outputs": [
        {
          "internalType": "string",
          "name": "",
          "type": "string"
        }
      ],
      "stateMutability": "view",
      "type": "function"
    },
    {
      "inputs": [
        {
          "internalType": "uint256",
          "name": "tokenId",
          "type": "uint256"
        }
      ],
      "name": "tokenURI",
      "outputs": [
        {
          "internalType": "string",
          "name": "",
          "type": "string"
        }
      ],
      "stateMutability": "view",
      "type": "function"
    },
    {
      "inputs": [
        {
          "internalType": "address",
          "name": "from",
          "type": "address"
        },
        {
          "internalType": "address",
          "name": "to",
          "type": "address"
        },
        {
          "internalType": "uint256",
          "name": "tokenId",
          "type": "uint256"
        }
      ],
      "name": "transferFrom",
      "outputs": [],
      "stateMutability": "nonpayable",
      "type": "function"
    },
    {
      "inputs": [
        {
          "internalType": "address",
          "name": "newOwner",
          "type": "address"
        }
      ],
      "name": "transferOwnership",
      "outputs": [],
      "stateMutability": "nonpayable",
      "type": "function"
    }
  ],
  "bytecode": "0x60806040523480156200001157600080fd5b5060405162002de938038062002de9833981810160405281019062000037919062000288565b806040518060400160405280600581526020017f58726179730000000000000000000000000000000000000000000000000000008152506040518060400160405280600381526020017f58525900000000000000000000000000000000000000000000000000000000008152508160009081620000b5919062000534565b508060019081620000c7919062000534565b505050600073ffffffffffffffffffffffffffffffffffffffff168173ffffffffffffffffffffffffffffffffffffffff16036200013f5760006040517f1e4fbdf70000000000000000000000000000000000000000000000000000000081526004016200013691906200062c565b60405180910390fd5b62000150816200015860201b60201c565b505062000649565b6000600760009054906101000a900473ffffffffffffffffffffffffffffffffffffffff16905081600760006101000a81548173ffffffffffffffffffffffffffffffffffffffff021916908373ffffffffffffffffffffffffffffffffffffffff1602179055508173ffffffffffffffffffffffffffffffffffffffff168173ffffffffffffffffffffffffffffffffffffffff167f8be0079c531659141344cd1fd0a4f28419497f9722a3daafe3b4186f6b6457e060405160405180910390a35050565b600080fd5b600073ffffffffffffffffffffffffffffffffffffffff82169050919050565b6000620002508262000223565b9050919050565b620002628162000243565b81146200026e57600080fd5b50565b600081519050620002828162000257565b92915050565b600060208284031215620002a157620002a06200021e565b5b6000620002b18482850162000271565b91505092915050565b600081519050919050565b7f4e487b7100000000000000000000000000000000000000000000000000000000600052604160045260246000fd5b7f4e487b7100000000000000000000000000000000000000000000000000000000600052602260045260246000fd5b600060028204905060018216806200033c57607f821691505b602082108103620003525762000351620002f4565b5b50919050565b60008190508160005260206000209050919050565b60006020601f8301049050919050565b600082821b905092915050565b600060088302620003bc7fffffffffffffffffffffffffffffffffffffffffffffffffffffffffffffffff826200037d565b620003c886836200037d565b95508019841693508086168417925050509392505050565b6000819050919050565b6000819050919050565b6000620004156200040f6200040984620003e0565b620003ea565b620003e0565b9050919050565b6000819050919050565b6200043183620003f4565b6200044962000440826200041c565b8484546200038a565b825550505050565b600090565b6200046062000451565b6200046d81848462000426565b505050565b5b8181101562000495576200048960008262000456565b60018101905062000473565b5050565b601f821115620004e457620004ae8162000358565b620004b9846200036d565b81016020851015620004c9578190505b620004e1620004d8856200036d565b83018262000472565b50505b505050565b600082821c905092915050565b60006200050960001984600802620004e9565b1980831691505092915050565b6000620005248383620004f6565b9150826002028217905092915050565b6200053f82620002ba565b67ffffffffffffffff8111156200055b576200055a620002c5565b5b62000567825462000323565b6200057482828562000499565b600060209050601f831160018114620005ac576000841562000597578287015190505b620005a3858262000516565b86555062000613565b601f198416620005bc8662000358565b60005b82811015620005e657848901518255600182019150602085019450602081019050620005bf565b8683101562000606578489015162000602601f891682620004f6565b8355505b6001600288020188555050505b505050505050565b620006268162000243565b82525050565b60006020820190506200064360008301846200061b565b92915050565b61279080620006596000396000f3fe608060405234801561001057600080fd5b50600436106101165760003560e01c80638da5cb5b116100a2578063c87b56dd11610071578063c87b56dd146102cb578063ca00c702146102fb578063d204c45e14610319578063e985e9c514610335578063f2fde38b1461036557610116565b80638da5cb5b1461025757806395d89b4114610275578063a22cb46514610293578063b88d4fde146102af57610116565b806323b872dd116100e957806323b872dd146101b557806342842e0e146101d15780636352211e146101ed57806370a082311461021d578063715018a61461024d57610116565b806301ffc9a71461011b57806306fdde031461014b578063081812fc14610169578063095ea7b314610199575b600080fd5b61013560048036038101906101309190611be8565b610381565b6040516101429190611c30565b60405180910390f35b610153610393565b6040516101609190611cdb565b60405180910390f35b610183600480360381019061017e9190611d33565b610425565b6040516101909190611da1565b60405180910390f35b6101b360048036038101906101ae9190611de8565b610441565b005b6101cf60048036038101906101ca9190611e28565b610457565b005b6101eb60048036038101906101e69190611e28565b610559565b005b61020760048036038101906102029190611d33565b610579565b6040516102149190611da1565b60405180910390f35b61023760048036038101906102329190611e7b565b61058b565b6040516102449190611eb7565b60405180910390f35b610255610645565b005b61025f610659565b60405161026c9190611da1565b60405180910390f35b61027d610683565b60405161028a9190611cdb565b60405180910390f35b6102ad60048036038101906102a89190611efe565b610715565b005b6102c960048036038101906102c49190612073565b61072b565b005b6102e560048036038101906102e09190611d33565b610748565b6040516102f29190611cdb565b60405180910390f35b61030361075a565b6040516103109190611cdb565b60405180910390f35b610333600480360381019061032e9190612197565b610848565b005b61034f600480360381019061034a91906121f3565b6108db565b60405161035c9190611c30565b60405180910390f35b61037f600480360381019061037a9190611e7b565b61096f565b005b600061038c826109f5565b9050919050565b6060600080546103a290612262565b80601f01602080910402602001604051908101604052809291908181526020018280546103ce90612262565b801561041b5780601f106103f05761010080835404028352916020019161041b565b820191906000526020600020905b8154815290600101906020018083116103fe57829003601f168201915b5050505050905090565b600061043082610a56565b5061043a82610ade565b9050919050565b610453828261044e610b1b565b610b23565b5050565b600073ffffffffffffffffffffffffffffffffffffffff168273ffffffffffffffffffffffffffffffffffffffff16036104c95760006040517f64a0ae920000000000000000000000000000000000000000000000000000000081526004016104c09190611da1565b60405180910390fd5b60006104dd83836104d8610b1b565b610b35565b90508373ffffffffffffffffffffffffffffffffffffffff168173ffffffffffffffffffffffffffffffffffffffff1614610553578382826040517f64283d7b00000000000000000000000000000000000000000000000000000000815260040161054a93929190612293565b60405180910390fd5b50505050565b6105748383836040518060200160405280600081525061072b565b505050565b600061058482610a56565b9050919050565b60008073ffffffffffffffffffffffffffffffffffffffff168273ffffffffffffffffffffffffffffffffffffffff16036105fe5760006040517f89c62b640000000000000000000000000000000000000000000000000000000081526004016105f59190611da1565b60405180910390fd5b600360008373ffffffffffffffffffffffffffffffffffffffff1673ffffffffffffffffffffffffffffffffffffffff168152602001908152602001600020549050919050565b61064d610d4f565b6106576000610dd6565b565b6000600760009054906101000a900473ffffffffffffffffffffffffffffffffffffffff16905090565b60606001805461069290612262565b80601f01602080910402602001604051908101604052809291908181526020018280546106be90612262565b801561070b5780601f106106e05761010080835404028352916020019161070b565b820191906000526020600020905b8154815290600101906020018083116106ee57829003601f168201915b5050505050905090565b610727610720610b1b565b8383610e9c565b5050565b610736848484610457565b6107428484848461100b565b50505050565b6060610753826111c2565b9050919050565b606060003390506000600a60008373ffffffffffffffffffffffffffffffffffffffff1673ffffffffffffffffffffffffffffffffffffffff1681526020019081526020016000205490506009600082815260200190815260200160002080546107c390612262565b80601f01602080910402602001604051908101604052809291908181526020018280546107ef90612262565b801561083c5780601f106108115761010080835404028352916020019161083c565b820191906000526020600020905b81548152906001019060200180831161081f57829003601f168201915b50505050509250505090565b6000600854905061085983826112d5565b80600a60008573ffffffffffffffffffffffffffffffffffffffff1673ffffffffffffffffffffffffffffffffffffffff16815260200190815260200160002081905550816009600083815260200190815260200160002090816108bd9190612476565b50600860008154809291906108d190612577565b9190505550505050565b6000600560008473ffffffffffffffffffffffffffffffffffffffff1673ffffffffffffffffffffffffffffffffffffffff16815260200190815260200160002060008373ffffffffffffffffffffffffffffffffffffffff1673ffffffffffffffffffffffffffffffffffffffff16815260200190815260200160002060009054906101000a900460ff16905092915050565b610977610d4f565b600073ffffffffffffffffffffffffffffffffffffffff168173ffffffffffffffffffffffffffffffffffffffff16036109e95760006040517f1e4fbdf70000000000000000000000000000000000000000000000000000000081526004016109e09190611da1565b60405180910390fd5b6109f281610dd6565b50565b6000634906490660e01b7bffffffffffffffffffffffffffffffffffffffffffffffffffffffff1916827bffffffffffffffffffffffffffffffffffffffffffffffffffffffff19161480610a4f5750610a4e826112f3565b5b9050919050565b600080610a62836113d5565b9050600073ffffffffffffffffffffffffffffffffffffffff168173ffffffffffffffffffffffffffffffffffffffff1603610ad557826040517f7e273289000000000000000000000000000000000000000000000000000000008152600401610acc9190611eb7565b60405180910390fd5b80915050919050565b60006004600083815260200190815260200160002060009054906101000a900473ffffffffffffffffffffffffffffffffffffffff169050919050565b600033905090565b610b308383836001611412565b505050565b600080610b41846113d5565b9050600073ffffffffffffffffffffffffffffffffffffffff168373ffffffffffffffffffffffffffffffffffffffff1614610b8357610b828184866115d7565b5b600073ffffffffffffffffffffffffffffffffffffffff168173ffffffffffffffffffffffffffffffffffffffff1614610c1457610bc5600085600080611412565b6001600360008373ffffffffffffffffffffffffffffffffffffffff1673ffffffffffffffffffffffffffffffffffffffff168152602001908152602001600020600082825403925050819055505b600073ffffffffffffffffffffffffffffffffffffffff168573ffffffffffffffffffffffffffffffffffffffff1614610c97576001600360008773ffffffffffffffffffffffffffffffffffffffff1673ffffffffffffffffffffffffffffffffffffffff168152602001908152602001600020600082825401925050819055505b846002600086815260200190815260200160002060006101000a81548173ffffffffffffffffffffffffffffffffffffffff021916908373ffffffffffffffffffffffffffffffffffffffff160217905550838573ffffffffffffffffffffffffffffffffffffffff168273ffffffffffffffffffffffffffffffffffffffff167fddf252ad1be2c89b69c2b068fc378daa952ba7f163c4a11628f55a4df523b3ef60405160405180910390a4809150509392505050565b610d57610b1b565b73ffffffffffffffffffffffffffffffffffffffff16610d75610659565b73ffffffffffffffffffffffffffffffffffffffff1614610dd457610d98610b1b565b6040517f118cdaa7000000000000000000000000000000000000000000000000000000008152600401610dcb9190611da1565b60405180910390fd5b565b6000600760009054906101000a900473ffffffffffffffffffffffffffffffffffffffff16905081600760006101000a81548173ffffffffffffffffffffffffffffffffffffffff021916908373ffffffffffffffffffffffffffffffffffffffff1602179055508173ffffffffffffffffffffffffffffffffffffffff168173ffffffffffffffffffffffffffffffffffffffff167f8be0079c531659141344cd1fd0a4f28419497f9722a3daafe3b4186f6b6457e060405160405180910390a35050565b600073ffffffffffffffffffffffffffffffffffffffff168273ffffffffffffffffffffffffffffffffffffffff1603610f0d57816040517f5b08ba18000000000000000000000000000000000000000000000000000000008152600401610f049190611da1565b60405180910390fd5b80600560008573ffffffffffffffffffffffffffffffffffffffff1673ffffffffffffffffffffffffffffffffffffffff16815260200190815260200160002060008473ffffffffffffffffffffffffffffffffffffffff1673ffffffffffffffffffffffffffffffffffffffff16815260200190815260200160002060006101000a81548160ff0219169083151502179055508173ffffffffffffffffffffffffffffffffffffffff168373ffffffffffffffffffffffffffffffffffffffff167f17307eab39ab6107e8899845ad3d59bd9653f200f220920489ca2b5937696c3183604051610ffe9190611c30565b60405180910390a3505050565b60008373ffffffffffffffffffffffffffffffffffffffff163b11156111bc578273ffffffffffffffffffffffffffffffffffffffff1663150b7a0261104f610b1b565b8685856040518563ffffffff1660e01b81526004016110719493929190612614565b6020604051808303816000875af19250505080156110ad57506040513d601f19601f820116820180604052508101906110aa9190612675565b60015b611131573d80600081146110dd576040519150601f19603f3d011682016040523d82523d6000602084013e6110e2565b606091505b50600081510361112957836040517f64a0ae920000000000000000000000000000000000000000000000000000000081526004016111209190611da1565b60405180910390fd5b805181602001fd5b63150b7a0260e01b7bffffffffffffffffffffffffffffffffffffffffffffffffffffffff1916817bffffffffffffffffffffffffffffffffffffffffffffffffffffffff1916146111ba57836040517f64a0ae920000000000000000000000000000000000000000000000000000000081526004016111b19190611da1565b60405180910390fd5b505b50505050565b60606111cd82610a56565b5060006006600084815260200190815260200160002080546111ee90612262565b80601f016020809104026020016040519081016040528092919081815260200182805461121a90612262565b80156112675780601f1061123c57610100808354040283529160200191611267565b820191906000526020600020905b81548152906001019060200180831161124a57829003601f168201915b50505050509050600061127861169b565b9050600081510361128d5781925050506112d0565b6000825111156112c25780826040516020016112aa9291906126de565b604051602081830303815290604052925050506112d0565b6112cb846116b2565b925050505b919050565b6112ef82826040518060200160405280600081525061171b565b5050565b60007f80ac58cd000000000000000000000000000000000000000000000000000000007bffffffffffffffffffffffffffffffffffffffffffffffffffffffff1916827bffffffffffffffffffffffffffffffffffffffffffffffffffffffff191614806113be57507f5b5e139f000000000000000000000000000000000000000000000000000000007bffffffffffffffffffffffffffffffffffffffffffffffffffffffff1916827bffffffffffffffffffffffffffffffffffffffffffffffffffffffff1916145b806113ce57506113cd82611737565b5b9050919050565b60006002600083815260200190815260200160002060009054906101000a900473ffffffffffffffffffffffffffffffffffffffff169050919050565b808061144b5750600073ffffffffffffffffffffffffffffffffffffffff168273ffffffffffffffffffffffffffffffffffffffff1614155b1561157f57600061145b84610a56565b9050600073ffffffffffffffffffffffffffffffffffffffff168373ffffffffffffffffffffffffffffffffffffffff16141580156114c657508273ffffffffffffffffffffffffffffffffffffffff168173ffffffffffffffffffffffffffffffffffffffff1614155b80156114d957506114d781846108db565b155b1561151b57826040517fa9fbf51f0000000000000000000000000000000000000000000000000000000081526004016115129190611da1565b60405180910390fd5b811561157d57838573ffffffffffffffffffffffffffffffffffffffff168273ffffffffffffffffffffffffffffffffffffffff167f8c5be1e5ebec7d5bd14f71427d1e84f3dd0314c0f7b2291e5b200ac8c7c3b92560405160405180910390a45b505b836004600085815260200190815260200160002060006101000a81548173ffffffffffffffffffffffffffffffffffffffff021916908373ffffffffffffffffffffffffffffffffffffffff16021790555050505050565b6115e28383836117a1565b61169657600073ffffffffffffffffffffffffffffffffffffffff168373ffffffffffffffffffffffffffffffffffffffff160361165757806040517f7e27328900000000000000000000000000000000000000000000000000000000815260040161164e9190611eb7565b60405180910390fd5b81816040517f177e802f00000000000000000000000000000000000000000000000000000000815260040161168d929190612702565b60405180910390fd5b505050565b606060405180602001604052806000815250905090565b60606116bd82610a56565b5060006116c861169b565b905060008151116116e85760405180602001604052806000815250611713565b806116f284611862565b6040516020016117039291906126de565b6040516020818303038152906040525b915050919050565b6117258383611930565b611732600084848461100b565b505050565b60007f01ffc9a7000000000000000000000000000000000000000000000000000000007bffffffffffffffffffffffffffffffffffffffffffffffffffffffff1916827bffffffffffffffffffffffffffffffffffffffffffffffffffffffff1916149050919050565b60008073ffffffffffffffffffffffffffffffffffffffff168373ffffffffffffffffffffffffffffffffffffffff161415801561185957508273ffffffffffffffffffffffffffffffffffffffff168473ffffffffffffffffffffffffffffffffffffffff16148061181a575061181984846108db565b5b8061185857508273ffffffffffffffffffffffffffffffffffffffff1661184083610ade565b73ffffffffffffffffffffffffffffffffffffffff16145b5b90509392505050565b60606000600161187184611a29565b01905060008167ffffffffffffffff8111156118905761188f611f48565b5b6040519080825280601f01601f1916602001820160405280156118c25781602001600182028036833780820191505090505b509050600082602001820190505b600115611925578080600190039150507f3031323334353637383961626364656600000000000000000000000000000000600a86061a8153600a85816119195761191861272b565b5b049450600085036118d0575b819350505050919050565b600073ffffffffffffffffffffffffffffffffffffffff168273ffffffffffffffffffffffffffffffffffffffff16036119a25760006040517f64a0ae920000000000000000000000000000000000000000000000000000000081526004016119999190611da1565b60405180910390fd5b60006119b083836000610b35565b9050600073ffffffffffffffffffffffffffffffffffffffff168173ffffffffffffffffffffffffffffffffffffffff1614611a245760006040517f73c6ac6e000000000000000000000000000000000000000000000000000000008152600401611a1b9190611da1565b60405180910390fd5b505050565b600080600090507a184f03e93ff9f4daa797ed6e38ed64bf6a1f0100000000000000008310611a87577a184f03e93ff9f4daa797ed6e38ed64bf6a1f0100000000000000008381611a7d57611a7c61272b565b5b0492506040810190505b6d04ee2d6d415b85acef81000000008310611ac4576d04ee2d6d415b85acef81000000008381611aba57611ab961272b565b5b0492506020810190505b662386f26fc100008310611af357662386f26fc100008381611ae957611ae861272b565b5b0492506010810190505b6305f5e1008310611b1c576305f5e1008381611b1257611b1161272b565b5b0492506008810190505b6127108310611b41576127108381611b3757611b3661272b565b5b0492506004810190505b60648310611b645760648381611b5a57611b5961272b565b5b0492506002810190505b600a8310611b73576001810190505b80915050919050565b6000604051905090565b600080fd5b600080fd5b60007fffffffff0000000000000000000000000000000000000000000000000000000082169050919050565b611bc581611b90565b8114611bd057600080fd5b50565b600081359050611be281611bbc565b92915050565b600060208284031215611bfe57611bfd611b86565b5b6000611c0c84828501611bd3565b91505092915050565b60008115159050919050565b611c2a81611c15565b82525050565b6000602082019050611c456000830184611c21565b92915050565b600081519050919050565b600082825260208201905092915050565b60005b83811015611c85578082015181840152602081019050611c6a565b60008484015250505050565b6000601f19601f8301169050919050565b6000611cad82611c4b565b611cb78185611c56565b9350611cc7818560208601611c67565b611cd081611c91565b840191505092915050565b60006020820190508181036000830152611cf58184611ca2565b905092915050565b6000819050919050565b611d1081611cfd565b8114611d1b57600080fd5b50565b600081359050611d2d81611d07565b92915050565b600060208284031215611d4957611d48611b86565b5b6000611d5784828501611d1e565b91505092915050565b600073ffffffffffffffffffffffffffffffffffffffff82169050919050565b6000611d8b82611d60565b9050919050565b611d9b81611d80565b82525050565b6000602082019050611db66000830184611d92565b92915050565b611dc581611d80565b8114611dd057600080fd5b50565b600081359050611de281611dbc565b92915050565b60008060408385031215611dff57611dfe611b86565b5b6000611e0d85828601611dd3565b9250506020611e1e85828601611d1e565b9150509250929050565b600080600060608486031215611e4157611e40611b86565b5b6000611e4f86828701611dd3565b9350506020611e6086828701611dd3565b9250506040611e7186828701611d1e565b9150509250925092565b600060208284031215611e9157611e90611b86565b5b6000611e9f84828501611dd3565b91505092915050565b611eb181611cfd565b82525050565b6000602082019050611ecc6000830184611ea8565b92915050565b611edb81611c15565b8114611ee657600080fd5b50565b600081359050611ef881611ed2565b92915050565b60008060408385031215611f1557611f14611b86565b5b6000611f2385828601611dd3565b9250506020611f3485828601611ee9565b9150509250929050565b600080fd5b600080fd5b7f4e487b7100000000000000000000000000000000000000000000000000000000600052604160045260246000fd5b611f8082611c91565b810181811067ffffffffffffffff82111715611f9f57611f9e611f48565b5b80604052505050565b6000611fb2611b7c565b9050611fbe8282611f77565b919050565b600067ffffffffffffffff821115611fde57611fdd611f48565b5b611fe782611c91565b9050602081019050919050565b82818337600083830152505050565b600061201661201184611fc3565b611fa8565b90508281526020810184848401111561203257612031611f43565b5b61203d848285611ff4565b509392505050565b600082601f83011261205a57612059611f3e565b5b813561206a848260208601612003565b91505092915050565b6000806000806080858703121561208d5761208c611b86565b5b600061209b87828801611dd3565b94505060206120ac87828801611dd3565b93505060406120bd87828801611d1e565b925050606085013567ffffffffffffffff8111156120de576120dd611b8b565b5b6120ea87828801612045565b91505092959194509250565b600067ffffffffffffffff82111561211157612110611f48565b5b61211a82611c91565b9050602081019050919050565b600061213a612135846120f6565b611fa8565b90508281526020810184848401111561215657612155611f43565b5b612161848285611ff4565b509392505050565b600082601f83011261217e5761217d611f3e565b5b813561218e848260208601612127565b91505092915050565b600080604083850312156121ae576121ad611b86565b5b60006121bc85828601611dd3565b925050602083013567ffffffffffffffff8111156121dd576121dc611b8b565b5b6121e985828601612169565b9150509250929050565b6000806040838503121561220a57612209611b86565b5b600061221885828601611dd3565b925050602061222985828601611dd3565b9150509250929050565b7f4e487b7100000000000000000000000000000000000000000000000000000000600052602260045260246000fd5b6000600282049050600182168061227a57607f821691505b60208210810361228d5761228c612233565b5b50919050565b60006060820190506122a86000830186611d92565b6122b56020830185611ea8565b6122c26040830184611d92565b949350505050565b60008190508160005260206000209050919050565b60006020601f8301049050919050565b600082821b905092915050565b60006008830261232c7fffffffffffffffffffffffffffffffffffffffffffffffffffffffffffffffff826122ef565b61233686836122ef565b95508019841693508086168417925050509392505050565b6000819050919050565b600061237361236e61236984611cfd565b61234e565b611cfd565b9050919050565b6000819050919050565b61238d83612358565b6123a16123998261237a565b8484546122fc565b825550505050565b600090565b6123b66123a9565b6123c1818484612384565b505050565b5b818110156123e5576123da6000826123ae565b6001810190506123c7565b5050565b601f82111561242a576123fb816122ca565b612404846122df565b81016020851015612413578190505b61242761241f856122df565b8301826123c6565b50505b505050565b600082821c905092915050565b600061244d6000198460080261242f565b1980831691505092915050565b6000612466838361243c565b9150826002028217905092915050565b61247f82611c4b565b67ffffffffffffffff81111561249857612497611f48565b5b6124a28254612262565b6124ad8282856123e9565b600060209050601f8311600181146124e057600084156124ce578287015190505b6124d8858261245a565b865550612540565b601f1984166124ee866122ca565b60005b82811015612516578489015182556001820191506020850194506020810190506124f1565b86831015612533578489015161252f601f89168261243c565b8355505b6001600288020188555050505b505050505050565b7f4e487b7100000000000000000000000000000000000000000000000000000000600052601160045260246000fd5b600061258282611cfd565b91507fffffffffffffffffffffffffffffffffffffffffffffffffffffffffffffffff82036125b4576125b3612548565b5b600182019050919050565b600081519050919050565b600082825260208201905092915050565b60006125e6826125bf565b6125f081856125ca565b9350612600818560208601611c67565b61260981611c91565b840191505092915050565b60006080820190506126296000830187611d92565b6126366020830186611d92565b6126436040830185611ea8565b818103606083015261265581846125db565b905095945050505050565b60008151905061266f81611bbc565b92915050565b60006020828403121561268b5761268a611b86565b5b600061269984828501612660565b91505092915050565b600081905092915050565b60006126b882611c4b565b6126c281856126a2565b93506126d2818560208601611c67565b80840191505092915050565b60006126ea82856126ad565b91506126f682846126ad565b91508190509392505050565b60006040820190506127176000830185611d92565b6127246020830184611ea8565b9392505050565b7f4e487b7100000000000000000000000000000000000000000000000000000000600052601260045260246000fdfea26469706673582212208b86f1b1067fc4be5cc3ef1a271b57c47ba9d94a36cc2001f399abd44506b08964736f6c63430008180033",
  "linkReferences": {},
  "deployedLinkReferences": {}
}